:100000000C942A000C94180B0C94450B0C94720B56
:100010000C9447000C9447000C94480A0C94750A01
:100020000C94A20A0C94CF0A0C9447000C9447003D
:100030000C9447000C945C080C9489080C94B60846
:100040000C94C40F0C9447000C9447000C94470088
:100050000C94470011241FBECFE5D8E0DEBFCDBF12
:1000600011E0A0E6B0E0E6EDF0E402C005900D92EC
:10007000AA3AB107D9F711E0AAEAB1E001C01D928E
:10008000A23CB107E1F70E94521E0C9469200C9427
:100090000000EF92FF920F931F937B018C0120E0F1
:1000A00030E040E05FE40E94F50388238CF0C80153
:1000B000B70120E030E040E05FE40E94C1010E940F
:1000C00055049B01AC01205030404040504806C0D0
:1000D000C801B7010E9455049B01AC01B901CA01D6
:1000E0001F910F91FF90EF900895A0E0B0E0EBE733
:1000F000F0E00C943220DC012B01FA019C9192304B
:1001000008F439C1EB018881823008F433C194309E
:1001100069F4843009F02FC111969C91119789815F
:10012000981709F428C1A4E6B0E025C1843009F489
:1001300021C18230A9F4923009F01DC19A01AD01AC
:1001400088E0EA010990AE01E90109929E0181501F
:10015000C1F7E201898111969C918923818308C1AD
:10016000923009F407C112962D903C901397EB0141
:100170008A819B811496AD90BD90CD90DC901797AD
:10018000EC80FD800E811F819101281B390BB90184
:1001900037FF04C066277727621B730B6032710537
:1001A0000CF061C0121613066CF537014801062EDB
:1001B00004C096948794779467940A94D2F721E0C8
:1001C00030E040E050E004C0220F331F441F551FB1
:1001D0006A95D2F721503040404050402E213F21B7
:1001E00040235123211531054105510521F021E01E
:1001F00030E040E050E079018A01E628F72808293C
:1002000019293CC0232BD1F1260E371E350146019A
:10021000062E04C096948794779467940A94D2F734
:1002200021E030E040E050E004C0220F331F441FC3
:10023000551F6A95D2F721503040404050402A2146
:100240003B214C215D21211531054105510521F04E
:1002500021E030E040E050E059016A01A628B728CB
:10026000C828D9280BC0821593052CF01C01AA249C
:10027000BB24650103C0EE24FF24870111969C91E5
:10028000D20111968C91981709F445C0992339F041
:10029000A80197012A193B094C095D0906C0A6016E
:1002A00095012E193F09400B510B57FD08C01182D3
:1002B0003382228224833583468357831DC081E0A5
:1002C00081833382228288279927DC01821B930B4A
:1002D000A40BB50B84839583A683B7830DC0220F2F
:1002E000331F441F551F24833583468357838281E0
:1002F000938101979383828324813581468157813D
:10030000DA01C9010197A109B1098F5F9F4FAF4F72
:10031000BF4328F30BC0918333822282EA0CFB1C7B
:100320000C1D1D1DE482F5820683178383E0808304
:10033000248135814681578157FF1AC0C901AA27F8
:1003400097FDA095BA2F81709070A070B0705695EF
:10035000479537952795822B932BA42BB52B848318
:100360009583A683B7838281938101969383828349
:10037000DF0101C0D201CD01CDB7DEB7E2E10C94BF
:100380004E20A0E2B0E0E7ECF1E00C943E2069835F
:100390007A838B839C832D833E834F835887E9E048
:1003A000EE2EF12CEC0EFD1ECE010196B7010E943F
:1003B00046068E010F5E1F4FCE010596B8010E94C2
:1003C00046068A8991E089278A8BC701B801AE0168
:1003D000475E5F4F0E9475000E947105A096E6E09F
:1003E0000C945A20A0E2B0E0E8EFF1E00C943E203B
:1003F00069837A838B839C832D833E834F835887C5
:10040000F9E0EF2EF12CEC0EFD1ECE010196B701A6
:100410000E9446068E010F5E1F4FCE010596B80161
:100420000E944606C701B801AE01475E5F4F0E94B9
:1004300075000E947105A096E6E00C945A20A0E297
:10044000B0E0E5E2F2E00C94322069837A838B839A
:100450009C832D833E834F835887CE010196BE0136
:10046000675F7F4F0E944606CE010596BE016F5E14
:100470007F4F0E9446069985923088F089898230A4
:10048000C8F0943019F4823051F404C0843029F457
:10049000923081F484E690E0C6C0923049F420E0C6
:1004A0009A858A89981321E02A87CE010996BBC0D4
:1004B000823049F420E09A858A89981321E02A8BBA
:1004C000CE014196B0C02D843E844F8458886D88FB
:1004D0007E888F88988CEE24FF248701AA24BB2471
:1004E000650140E050E060E070E0E0E0F0E0C10174
:1004F00081709070892BE9F0E60CF71C081D191D1E
:100500009A01AB012A0D3B1D4C1D5D1D80E090E062
:10051000A0E0B0E0E614F7040805190520F481E036
:1005200090E0A0E0B0E0BA01A901480F591F6A1F8E
:100530007B1FAA0CBB1CCC1CDD1C97FE08C081E0F5
:1005400090E0A0E0B0E0A82AB92ACA2ADB2A3196B6
:10055000E032F10549F0660C771C881C991C569412
:10056000479437942794C3CFFA85EA892B893C892D
:100570008B859C85280F391F2E5F3F4F17C0CA01FE
:1005800081709070892B61F016950795F794E79428
:1005900080E090E0A0E0B0E8E82AF92A0A2B1B2BC3
:1005A00076956795579547952F5F3F4F77FDE7CF36
:1005B0000CC0440F551F661F771F17FD4160EE0CDE
:1005C000FF1C001F111F21503040403090E05907A0
:1005D00090E0690790E4790760F32B8F3C8FDB0193
:1005E000CA018F779070A070B07080349105A1051A
:1005F000B10561F447FD0AC0E114F10401051105DC
:1006000029F0405C5F4F6F4F7F4F40781A8EFE1786
:1006100011F081E08A8F4D8F5E8F6F8F78A383E01A
:10062000898FCE0149960E947105A096E2E10C9453
:100630004E20A8E1B0E0EFE1F3E00C943A206983AA
:100640007A838B839C832D833E834F835887B9E0C5
:10065000EB2EF12CEC0EFD1ECE010196B7010E948F
:1006600046068E010F5E1F4FCE010596B8010E940F
:1006700046062985223008F47EC03989323010F4CC
:10068000B8017CC08A859A8989278A87243011F02D
:10069000223031F4231709F06EC064E670E06EC0BA
:1006A000343039F41D861E861F86188A1C861B86E8
:1006B00004C0323021F484E08987B7015FC02B8504
:1006C0003C858B899C89281B390B3C872B87ED84C3
:1006D000FE840F851889AD88BE88CF88D88CEA142F
:1006E000FB040C051D0540F4EE0CFF1C001F111F40
:1006F000215030403C872B8720E030E040E050E044
:1007000080E090E0A0E0B0E460E070E0EA14FB0478
:100710000C051D0540F0282B392B4A2B5B2BEA18C2
:10072000FB080C091D09B695A79597958795EE0CC2
:10073000FF1C001F111F6F5F7F4F6F31710531F775
:10074000DA01C9018F779070A070B0708034910584
:10075000A105B10561F427FD0AC0E114F10401050A
:10076000110529F0205C3F4F4F4F5F4F20782D87B8
:100770003E874F87588BBE01675F7F4FCB010E943A
:1007800071056896EAE00C945620A8E1B0E0EBEC25
:10079000F3E00C943E2069837A838B839C832D83C2
:1007A0003E834F83588789E0E82EF12CEC0EFD1E26
:1007B000CE010196B7010E9446068E010F5E1F4FC3
:1007C000CE010596B8010E9446068985823040F028
:1007D0008989823028F0C701B8010E94BE0601C095
:1007E0008FEF6896E6E00C945A20A8E1B0E0EBEFBA
:1007F000F3E00C943E2069837A838B839C832D8362
:100800003E834F83588789E0E82EF12CEC0EFD1EC5
:10081000CE010196B7010E9446068E010F5E1F4F62
:10082000CE010596B8010E9446068985823040F0C7
:100830008989823028F0C701B8010E94BE0601C034
:100840008FEF6896E6E00C945A20A8E1B0E0EBE266
:10085000F4E00C943E2069837A838B839C832D8300
:100860003E834F83588789E0E82EF12CEC0EFD1E65
:10087000CE010196B7010E9446068E010F5E1F4F02
:10088000CE010596B8010E9446068985823040F067
:100890008989823028F0C701B8010E94BE0601C0D4
:1008A00081E06896E6E00C945A20ACE0B0E0EBE51D
:1008B000F4E00C94422069837A838B839C83CE017D
:1008C0000196BE016B5F7F4F0E9446068D8182308C
:1008D00061F1823050F1843021F48E81882351F10E
:1008E0002EC02F81388537FD20C06E812F31310514
:1008F0001CF06623F9F023C08EE190E0821B930B7D
:1009000029853A854B855C8504C056954795379572
:1009100027958A95D2F76623B1F05095409530958A
:1009200021953F4F4F4F5F4F0EC020E030E040E039
:1009300050E009C02FEF3FEF4FEF5FE704C020E02A
:1009400030E040E050E8B901CA012C96E2E00C9496
:100950005E20A8E0B0E0EFEAF4E00C943A207B01DE
:100960008C01611571058105910519F482E0898377
:1009700060C083E089838EE1C82ED12CDC82CB82DB
:10098000ED82FE820F831887C801B7010E942205FD
:10099000FC013197F7FF3BC0222733272E1B3F0B6B
:1009A00057016801022E04C0D694C794B794A79447
:1009B0000A94D2F740E050E060E070E081E090E01F
:1009C000A0E0B0E004C0880F991FAA1FBB1F2A95A2
:1009D000D2F70197A109B1098E219F21A023B1234C
:1009E0000097A105B10521F041E050E060E070E022
:1009F0004A295B296C297D294D835E836F83788723
:100A00008EE190E08E1B9F0B9C838B8312C03097EE
:100A100081F00E2E04C0EE0CFF1C001F111F0A9463
:100A2000D2F7ED82FE820F831887CE1ADF0ADC82AE
:100A3000CB821A82CE0101960E9471052896EAE0C7
:100A40000C945620EF92FF920F931F937B018C0121
:100A500080E0E81680E0F80681E0080780E01807EB
:100A600088F48FEFE816F1040105110531F028F044
:100A700088E090E0A0E0B0E017C080E090E0A0E067
:100A8000B0E012C080E0E81680E0F80680E00807D9
:100A900081E0180728F088E190E0A0E0B0E004C011
:100AA00080E190E0A0E0B0E020E230E040E050E003
:100AB000281B390B4A0B5B0B04C016950795F7945E
:100AC000E7948A95D2F7F701E459FF4F8081281BFC
:100AD000310941095109C9011F910F91FF90EF9010
:100AE0000895DF92EF92FF920F931F93FC01E48031
:100AF000F58006811781D1808081823048F480E0C2
:100B000090E0A0E1B0E0E82AF92A0A2B1B2BA5C04F
:100B1000843009F49FC0823021F4EE24FF24870141
:100B200005C0E114F1040105110519F4E0E0F0E05D
:100B300096C0628173819FEF623879070CF05BC0C9
:100B400022E83FEF261B370B2A3131052CF020E03D
:100B500030E040E050E02AC0B801A701022E04C0F6
:100B600076956795579547950A94D2F781E090E07E
:100B7000A0E0B0E004C0880F991FAA1FBB1F2A95F0
:100B8000D2F70197A109B1098E219F21A023B1239A
:100B90000097A105B10521F081E090E0A0E0B0E070
:100BA0009A01AB01282B392B4A2B5B2BDA01C901A7
:100BB0008F779070A070B07080349105A105B10559
:100BC00039F427FF09C0205C3F4F4F4F5F4F04C0EF
:100BD000215C3F4F4F4F5F4FE0E0F0E02030A0E05E
:100BE0003A07A0E04A07A0E45A0710F0E1E0F0E07D
:100BF00079018A0127C06038710564F5FB01E1586D
:100C0000FF4FD801C7018F779070A070B07080340B
:100C10009105A105B10539F4E7FE0DC080E490E02F
:100C2000A0E0B0E004C08FE390E0A0E0B0E0E80E08
:100C3000F91E0A1F1B1F17FF05C016950795F7948D
:100C4000E794319687E016950795F794E7948A958F
:100C5000D1F705C0EE24FF248701EFEFF0E06E2FFF
:100C6000679566276795902F9F77D794DD24D79453
:100C70008E2F8695492F462B582F5D29B701CA0123
:100C80001F910F91FF90EF90DF900895FC01DB0121
:100C9000408151812281622F6F7770E0221F2227CD
:100CA000221F9381892F880F822B282F30E0991FD4
:100CB0009927991F11969C93119721153105A9F534
:100CC000411551056105710511F482E037C082E8D4
:100CD0009FEF13969C938E9312979A01AB0167E056
:100CE000220F331F441F551F6A95D1F783E08C9361
:100CF0000DC0220F331F441F551F12968D919C91DA
:100D00001397019713969C938E931297203080E04F
:100D1000380780E0480780E4580758F314962D936D
:100D20003D934D935C93179708952F3F310579F4C8
:100D3000411551056105710519F484E08C930895FE
:100D400064FF03C081E08C9312C01C9210C02F5727
:100D5000304013963C932E93129783E08C9387E058
:100D6000440F551F661F771F8A95D1F7706414963C
:100D70004D935D936D937C93179708951F93DC01BA
:100D8000FB019C91923008F447C08081823008F4C6
:100D900043C0943051F411961C91843099F58181AF
:100DA000682F70E0611B71093FC0843021F09230E0
:100DB00031F48230B9F18181882389F12DC01196F7
:100DC0001C9111978230F1F081811817D9F4129695
:100DD0002D913C911397828193818217930794F010
:100DE00028173907BCF014968D919D910D90BC91F8
:100DF000A02D2481358146815781281739074A075C
:100E00005B0718F4112341F00AC082179307A40767
:100E1000B50740F4112319F061E070E005C06FEFF1
:100E20007FEF02C060E070E0CB011F910895DF9377
:100E3000CF930F92CDB7DEB71982898180688983FD
:100E400089818F7B898389818F7E898389818F7D49
:100E500089838981877F89838981897F8983898142
:100E60008660898389818E7F8983E0E4F0E08981CF
:100E70008083AAE2B0E0EAE2F0E080818F778C9391
:100E8000AAE2B0E0EAE2F0E080818F7B8C93AAE2F4
:100E9000B0E0EAE2F0E080818F7D8C93AAE2B0E0DE
:100EA000EAE2F0E0808180618C93AAE2B0E0EAE2BD
:100EB000F0E0808188608C93E9E2F0E083E3808356
:100EC00080E060E040E00E94400C80E061E041E0B2
:100ED0000E94400C0F90CF91DF910895DF93CF9344
:100EE0000F92CDB7DEB78983EBE2F0E08081829587
:100EF00086958770882F90E0817090700097A1F39D
:100F0000ECE2F0E0898180830F90CF91DF9108952A
:100F1000DF93CF93CDB7DEB7EBE2F0E0808188239B
:100F2000DCF7ECE2F0E08081CF91DF910895DF9370
:100F3000CF9300D00F92CDB7DEB79B838A831982FF
:100F40000EC08981282F30E08A819B81FC01E20F4D
:100F5000F31F80810E946E0789818F5F8983898159
:100F6000282F30E08A819B81FC01E20FF31F8081F2
:100F7000882F90E0009729F780E00E946E070F907D
:100F80000F900F90CF91DF9108950F931F93DF93F0
:100F9000CF9300D00F92CDB7DEB79B838A8319829F
:100FA0008981282F30E08A819B818C01020F131FD9
:100FB0000E948807F80180830FC089818F5F898331
:100FC0008981282F30E08A819B818C01020F131FB9
:100FD0000E948807F80180838981282F30E08A8168
:100FE0009B81FC01E20FF31F8081882F90E0009726
:100FF00021F78981282F30E08A819B81FC01E20F53
:10100000F31F10820F900F900F90CF91DF911F91DF
:101010000F910895DF93CF93CDB7DEB7EBE2F0E009
:10102000808182958695869583708170CF91DF91BE
:101030000895DF93CF93CDB7DEB7EBE2F0E0808188
:10104000881F8827881FCF91DF910895DF93CF9362
:1010500000D0CDB7DEB79A83898389819A81909336
:10106000AB018093AA010F900F90CF91DF9108956B
:10107000DF93CF9300D0CDB7DEB79A838983898180
:101080009A819093AF018093AE010F900F90CF9112
:10109000DF910895DF93CF9300D0CDB7DEB79A8369
:1010A000898389819A819093AD018093AC010F90DF
:1010B0000F90CF91DF9108951F920F920FB60F926C
:1010C00011242F933F934F935F936F937F938F934D
:1010D0009F93AF93BF93EF93FF93DF93CF93CDB7DE
:1010E000DEB7E091AA01F091AB010995CF91DF91B4
:1010F000FF91EF91BF91AF919F918F917F916F91F0
:101100005F914F913F912F910F900FBE0F901F90C5
:1011100018951F920F920FB60F9211242F933F93A1
:101120004F935F936F937F938F939F93AF93BF93EF
:10113000EF93FF93DF93CF93CDB7DEB7E091AC0190
:10114000F091AD010995CF91DF91FF91EF91BF91A2
:10115000AF919F918F917F916F915F914F913F914F
:101160002F910F900FBE0F901F9018951F920F9206
:101170000FB60F9211242F933F934F935F936F936A
:101180007F938F939F93AF93BF93EF93FF93DF93DF
:10119000CF93CDB7DEB7E091AE01F091AF010995E5
:1011A000CF91DF91FF91EF91BF91AF919F918F917F
:1011B0007F916F915F914F913F912F910F900FBE53
:1011C0000F901F901895DF93CF93CDB7DEB7AFE4A4
:1011D000B0E0EFE4F0E080818E7F8C93AFE4B0E08C
:1011E000EFE4F0E0808182608C93AEE4B0E0EEE466
:1011F000F0E0808188608C93AEE4B0E0EEE4F0E053
:10120000808180618C93A9E5B0E0E9E5F0E0808120
:1012100080618C9383E065E041E00E94400C83E0B4
:1012200064E041E00E94400CAFE4B0E0EFE4F0E0A5
:1012300080818F7B8C93AFE4B0E0EFE4F0E08081BD
:1012400080688C93CF91DF910895DF93CF930F92B5
:10125000CDB7DEB789830F90CF91DF910895DF93EB
:10126000CF9300D0CDB7DEB79A838983EAE4F0E06C
:1012700089819A81918380830F900F90CF91DF9124
:101280000895DF93CF9300D0CDB7DEB79A838983DB
:10129000E8E4F0E089819A81918380830F900F9038
:1012A000CF91DF910895DF93CF9300D0CDB7DEB714
:1012B0009A838983E6E4F0E089819A81918380832F
:1012C0000F900F90CF91DF910895DF93CF9300D0CF
:1012D000CDB7DEB79A83898389819A819093B301D0
:1012E0008093B2010F900F90CF91DF910895DF931B
:1012F000CF9300D0CDB7DEB79A83898389819A8155
:101300009093B5018093B4010F900F90CF91DF912E
:101310000895DF93CF9300D0CDB7DEB79A8389834A
:1013200089819A819093B7018093B6010F900F90B5
:10133000CF91DF910895DF93CF9300D0CDB7DEB783
:101340009A83898389819A819093B1018093B001B6
:101350000F900F90CF91DF910895DF93CF93CDB78A
:10136000DEB7AEE4B0E0EEE4F0E08081887F8C93FD
:10137000AEE4B0E0EEE4F0E0808182608C93CF9147
:10138000DF910895DF93CF93CDB7DEB7AEE4B0E041
:10139000EEE4F0E08081887F8C93CF91DF91089517
:1013A000DF93CF930F92CDB7DEB789830F90CF91A4
:1013B000DF910895DF93CF93CDB7DEB780E0CF9173
:1013C000DF910895DF93CF93CDB7DEB780E0CF9163
:1013D000DF910895DF93CF93CDB7DEB780E090E043
:1013E000A0E0B0E0BC01CD01CF91DF910895DF9383
:1013F000CF93CDB7DEB780E090E0A0E0B0E0BC01D5
:10140000CD01CF91DF910895DF93CF93CDB7DEB7B4
:10141000E6E4F0E080819181CF91DF910895DF9340
:10142000CF9300D00F92CDB7DEB789838981282F63
:1014300030E03B832A838A819B81009731F02A81A7
:101440003B812130310549F00FC0AEE4B0E0EEE45D
:10145000F0E080818F7B8C9307C0AEE4B0E0EEE4D7
:10146000F0E0808180648C930F900F900F90CF916B
:10147000DF910895DF93CF93CDB7DEB7A9E5B0E054
:10148000E9E5F0E080818F7D8C93CF91DF91089525
:101490001F920F920FB60F9211242F933F934F93E9
:1014A0005F936F937F938F939F93AF93BF93EF93CC
:1014B000FF93DF93CF93CDB7DEB7E091B001F0910A
:1014C000B1010995CF91DF91FF91EF91BF91AF915C
:1014D0009F918F917F916F915F914F913F912F914C
:1014E0000F900FBE0F901F9018951F920F920FB67E
:1014F0000F9211242F933F934F935F936F937F939A
:101500008F939F93AF93BF93EF93FF93DF93CF930B
:10151000CDB7DEB7E091B401F091B5010995CF9157
:10152000DF91FF91EF91BF91AF919F918F917F914B
:101530006F915F914F913F912F910F900FBE0F9040
:101540001F9018951F920F920FB60F9211242F9390
:101550003F934F935F936F937F938F939F93AF933B
:10156000BF93EF93FF93DF93CF93CDB7DEB7E091B7
:10157000B601F091B7010995CF91DF91FF91EF91FD
:10158000BF91AF919F918F917F916F915F914F919B
:101590003F912F910F900FBE0F901F9018951F92A3
:1015A0000F920FB60F9211242F933F934F935F9397
:1015B0006F937F938F939F93AF93BF93EF93FF931B
:1015C000DF93CF93CDB7DEB7E091B201F091B301D5
:1015D0000995CF91DF91FF91EF91BF91AF919F91CD
:1015E0008F917F916F915F914F913F912F910F90CC
:1015F0000FBE0F901F901895DF93CF93CDB7DEB736
:10160000AFE5B0E0EFE5F0E0808180688C93CF91AA
:10161000DF910895DF93CF93CDB7DEB7AFE5B0E0AC
:10162000EFE5F0E080818F778C93CF91DF91089583
:101630001F920F920FB60F9211242F933F934F9347
:101640005F936F937F938F939F93AF93BF93EF932A
:10165000FF93DF93CF93CDB7DEB7E091B801F09160
:10166000B9010995CF91DF91FF91EF91BF91AF91B2
:101670009F918F917F916F915F914F913F912F91AA
:101680000F900FBE0F901F9018951F920F920FB6DC
:101690000F9211242F933F934F935F936F937F93F8
:1016A0008F939F93AF93BF93EF93FF93DF93CF936A
:1016B000CDB7DEB7E091BA01F091BB010995CF91AA
:1016C000DF91FF91EF91BF91AF919F918F917F91AA
:1016D0006F915F914F913F912F910F900FBE0F909F
:1016E0001F9018951F920F920FB60F9211242F93EF
:1016F0003F934F935F936F937F938F939F93AF939A
:10170000BF93EF93FF93DF93CF93CDB7DEB7E09115
:10171000BC01F091BD010995CF91DF91FF91EF914F
:10172000BF91AF919F918F917F916F915F914F91F9
:101730003F912F910F900FBE0F901F901895DF9340
:10174000CF93CDB7DEB783E062E040E00E94400C6B
:1017500083E062E041E00E94FB0CABE5B0E0EBE52A
:10176000F0E0808180648C93A5E5B0E0E5E5F0E0F1
:1017700080818E7F8C93A5E5B0E0E5E5F0E0808187
:1017800082608C93CF91DF910895DF93CF93CDB793
:10179000DEB783E063E040E00E94400C83E063E05A
:1017A00041E00E94FB0CABE5B0E0EBE5F0E08081AE
:1017B00080688C93A5E5B0E0E5E5F0E08081846089
:1017C0008C93A5E5B0E0E5E5F0E08081877F8C9320
:1017D000CF91DF910895DF93CF93CDB7DEB781E04E
:1017E00062E040E00E94400C81E062E041E00E9443
:1017F000FB0CABE5B0E0EBE5F0E0808180628C9320
:10180000A4E5B0E0E4E5F0E080818F7B8C93CF919C
:10181000DF910895DF93CF9300D0CDB7DEB79A83E1
:10182000898389819A819093B9018093B8010F903F
:101830000F90CF91DF910895DF93CF9300D0CDB774
:10184000DEB79A83898389819A819093BB018093C3
:10185000BA010F900F90CF91DF910895DF93CF934E
:1018600000D0CDB7DEB79A83898389819A8190931E
:10187000BD018093BC010F900F90CF91DF9108952F
:10188000DF93CF9300D000D00F92CDB7DEB789831E
:101890006A834B838981282F30E03D832C836C81C0
:1018A0007D8161307105D1F18C819D8182309105FE
:1018B00034F42C813D812115310571F094C06C8187
:1018C0007D816230710509F44BC08C819D8183302C
:1018D000910509F467C087C0AAE3B0E0EAE3F0E04D
:1018E0008081482F8A81282F30E081E090E002C07B
:1018F000880F991F2A95E2F7809548238B81282F1E
:1019000030E08A81882F90E0B90102C0660F771F0E
:101910008A95E2F7CB01842B8C9365C0A7E3B0E0F6
:10192000E7E3F0E08081482F8A81282F30E081E0D2
:1019300090E002C0880F991F2A95E2F7809548230E
:101940008B81282F30E08A81882F90E0B90102C076
:10195000660F771F8A95E2F7CB01842B8C9343C0E7
:10196000A4E3B0E0E4E3F0E08081482F8A81282FEF
:1019700030E081E090E002C0880F991F2A95E2F7DD
:10198000809548238B81282F30E08A81882F90E032
:10199000B90102C0660F771F8A95E2F7CB01842B4D
:1019A0008C9321C0A1E3B0E0E1E3F0E08081482F17
:1019B0008A81282F30E081E090E002C0880F991FD3
:1019C0002A95E2F7809548238B81282F30E08A8181
:1019D000882F90E0B90102C0660F771F8A95E2F761
:1019E000CB01842B8C930F900F900F900F900F9042
:1019F000CF91DF910895DF93CF9300D000D00F9265
:101A0000CDB7DEB789836A834B838981282F30E085
:101A10003D832C836C817D8161307105D1F18C8196
:101A20009D818230910534F42C813D812115310551
:101A300071F094C06C817D816230710509F44BC0F6
:101A40008C819D818330910509F467C087C0ABE329
:101A5000B0E0EBE3F0E08081482F8A81282F30E06E
:101A600081E090E002C0880F991F2A95E2F78095E7
:101A700048238B81282F30E08A81882F90E0B9019C
:101A800002C0660F771F8A95E2F7CB01842B8C93F7
:101A900065C0A8E3B0E0E8E3F0E08081482F8A81E8
:101AA000282F30E081E090E002C0880F991F2A952E
:101AB000E2F7809548238B81282F30E08A81882F98
:101AC00090E0B90102C0660F771F8A95E2F7CB015B
:101AD000842B8C9343C0A5E3B0E0E5E3F0E0808184
:101AE000482F8A81282F30E081E090E002C0880FE3
:101AF000991F2A95E2F7809548238B81282F30E0A3
:101B00008A81882F90E0B90102C0660F771F8A95FD
:101B1000E2F7CB01842B8C9321C0A2E3B0E0E2E397
:101B2000F0E08081482F8A81282F30E081E090E02A
:101B300002C0880F991F2A95E2F7809548238B8170
:101B4000282F30E08A81882F90E0B90102C0660F0B
:101B5000771F8A95E2F7CB01842B8C930F900F901F
:101B60000F900F900F90CF91DF910895DF93CF9357
:101B700000D000D00F92CDB7DEB78A836B838A8105
:101B8000282F30E03D832C834C815D81413051050D
:101B900041F18C819D818230910534F42C813D810D
:101BA0002115310561F052C04C815D8142305105F3
:101BB00051F18C819D8183309105B9F147C0E9E3F2
:101BC000F0E08081282F30E08B81882F90E0A90100
:101BD00002C0559547958A95E2F7CA0181708983BD
:101BE00035C0E6E3F0E08081282F30E08B81882F3C
:101BF00090E0A90102C0559547958A95E2F7CA0180
:101C00008170898323C0E3E3F0E08081282F30E0F6
:101C10008B81882F90E0A90102C0559547958A9540
:101C2000E2F7CA018170898311C0E0E3F0E08081AE
:101C3000282F30E08B81882F90E0A90102C05595B4
:101C400047958A95E2F7CA018170898389810F904F
:101C50000F900F900F900F90CF91DF910895DF9329
:101C6000CF9300D000D0CDB7DEB789836A83898156
:101C7000282F30E03C832B838B819C818130910520
:101C8000D1F02B813C81223031052CF48B819C8159
:101C9000009761F01EC02B813C812230310581F01C
:101CA0008B819C818330910581F013C0EAE3F0E0E1
:101CB0008A8180830EC0E7E3F0E08A81808309C0D7
:101CC000E4E3F0E08A81808304C0E1E3F0E08A810C
:101CD00080830F900F900F900F90CF91DF91089518
:101CE000DF93CF9300D000D0CDB7DEB789836A836E
:101CF0008981282F30E03C832B838B819C8181302C
:101D00009105D1F02B813C81223031052CF48B815F
:101D10009C81009761F01EC02B813C8122303105EF
:101D200081F08B819C818330910581F013C0EBE3BE
:101D3000F0E08A8180830EC0E8E3F0E08A8180834E
:101D400009C0E5E3F0E08A81808304C0E2E3F0E0CB
:101D50008A8180830F900F900F900F90CF91DF9129
:101D60000895DF93CF9300D000D0CDB7DEB789833D
:101D70006A838981282F30E03C832B838B819C816F
:101D80008130910549F12B813C81223031052CF4C1
:101D90008B819C81009761F05AC02B813C8122305D
:101DA000310571F18B819C8183309105E9F14FC040
:101DB000ABE3B0E0EBE3F0E08081482F8A81282F8D
:101DC00030E081E090E0022E02C0880F991F0A9453
:101DD000E2F784278C933BC0A8E3B0E0E8E3F0E0AF
:101DE0008081482F8A81282F30E081E090E0022E08
:101DF00002C0880F991F0A94E2F784278C9327C0AA
:101E0000A5E3B0E0E5E3F0E08081482F8A81282F48
:101E100030E081E090E0022E02C0880F991F0A9402
:101E2000E2F784278C9313C0A2E3B0E0E2E3F0E092
:101E30008081482F8A81282F30E081E090E0022EB7
:101E400002C0880F991F0A94E2F784278C930F90A1
:101E50000F900F900F90CF91DF910895DF93CF9364
:101E6000CDB7DEB7A7E2B0E0E7E2F0E080818064C2
:101E70008C93A7E2B0E0E7E2F0E080818F778C936B
:101E8000A7E2B0E0E7E2F0E080818F7D8C93A6E2EC
:101E9000B0E0E6E2F0E080818F7D8C93A6E2B0E0D6
:101EA000E6E2F0E0808187608C93A6E2B0E0E6E2B3
:101EB000F0E0808180688C93CF91DF910895DF936B
:101EC000CF930F92CDB7DEB78983A7E2B0E0E7E208
:101ED000F0E08081982F907E8981892B8C93A6E2F7
:101EE000B0E0E6E2F0E0808180648C93E6E2F0E02E
:101EF000808182958F70882F90E08170907000971C
:101F0000A9F3E4E2F0E08081918193700F90CF918A
:101F1000DF910895DF93CF9300D00F92CDB7DEB756
:101F20009A8389836B8389819A819093BF0180937F
:101F3000BE01A7E2B0E0E7E2F0E08081982F907E5A
:101F40008B81892B8C93A6E2B0E0E6E2F0E0808101
:101F500088608C93A6E2B0E0E6E2F0E080818064E5
:101F60008C93E6E2F0E08081829586958695837079
:101F7000882F90E081709070882399F70F900F90D0
:101F80000F90CF91DF9108951F920F920FB60F928D
:101F900011242F933F934F935F936F937F938F936E
:101FA0009F93AF93BF93EF93FF93DF93CF93CDB7FF
:101FB000DEB78091BE019091BF01009789F020911A
:101FC000BE013091BF01E4E2F0E080819181F9012E
:101FD0000995A6E2B0E0E6E2F0E08081877F8C938D
:101FE000CF91DF91FF91EF91BF91AF919F918F9131
:101FF0007F916F915F914F913F912F910F900FBE05
:102000000F901F901895DF93CF9300D00F92CDB70C
:10201000DEB789838981282F30E03B832A838A8138
:102020009B81009731F02A813B812130310531F0CD
:1020300023C081E06FEF0E942F0E1EC080E060E0A1
:1020400041E00E94400C80E061E041E00E94400CD1
:1020500080E062E041E00E94400C80E063E041E00B
:102060000E94400C80E064E041E00E94400C80E06F
:1020700065E041E00E94400C0F900F900F90CF91CF
:10208000DF910895DF93CF9300D00F92CDB7DEB7E5
:1020900089838981282F30E03B832A838A819B8131
:1020A000009731F02A813B812130310539F00BC096
:1020B00080E060E041E00E94FB0C05C080E061E050
:1020C00041E00E94FB0C0F900F900F90CF91DF9199
:1020D0000895DF93CF9300D00F92CDB7DEB78983F9
:1020E0008981282F30E03B832A838A819B81009756
:1020F00031F02A813B812130310539F00BC080E07D
:1021000060E040E00E94FB0C05C080E061E040E040
:102110000E94FB0C0F900F900F90CF91DF910895CC
:10212000DF93CF9300D000D0CDB7DEB789836A8329
:102130008981282F30E03C832B838B819C81009701
:1021400031F02B813C812130310579F01BC08A812F
:10215000882F90E0FC01E459FE4F8081982F9095E4
:1021600081E0692F0E94700E0DC08A81882F90E057
:10217000FC01E459FE4F8081982F909580E0692FF3
:102180000E94700E0F900F900F900F90CF91DF91E3
:102190000895DF93CF9300D000D0CDB7DEB7898309
:1021A0006A838981282F30E03C832B838B819C813B
:1021B000009731F02B813C812130310579F01BC033
:1021C0008A81882F90E0FC01EA58FE4F8081982F89
:1021D000909581E0692F0E94700E0DC08A81882F32
:1021E00090E0FC01EA58FE4F8081982F909580E0A6
:1021F000692F0E94700E0F900F900F900F90CF914B
:10220000DF910895DF93CF930F92CDB7DEB7898327
:102210008981882F90E0FC01E857FE4F8081982F3C
:10222000909580E0692F0E94700E8981882F90E040
:10223000FC01E258FE4F908181E067E0492F0E9447
:10224000FB0C0F90CF91DF910895DF93CF93CDB723
:10225000DEB70E94E308CF91DF910895DF93CF931B
:10226000CDB7DEB760970FB6F894DEBF0FBECDBF17
:102270008AE892E0988B8F878FE19EE40E94530951
:102280000E94AD097BC08F8598890E942F0980E04C
:1022900090E0A0E2B1E48B879C87AD87BE876B8519
:1022A0007C858D859E8520E030E04AEF54E40E94D5
:1022B0001F02DC01CB018F839887A987BA876F81C2
:1022C000788589859A8520E030E040E85FE30E94C8
:1022D000250488232CF481E090E09E838D833FC009
:1022E0006F81788589859A8520E03FEF4FE757E435
:1022F0000E94C50318164CF56B857C858D859E85DF
:1023000020E030E040E251E40E941F02DC01CB01FA
:10231000BC01CD010E944900DC01CB019E838D836D
:102320000FC088EC90E09C838B838B819C8101970C
:10233000F1F79C838B838D819E8101979E838D8392
:102340008D819E81009769F714C06F81788589859A
:102350009A850E944900DC01CB019E838D838D818B
:102360009E819A83898389819A810197F1F79A8363
:1023700089838F8598890196988B8F878F85988917
:1023800029E0853C920708F47ECF8AE892E00E941B
:102390002F0960960FB6F894DEBF0FBECDBFCF9168
:1023A000DF910895DF93CF9300D000D00F92CDB787
:1023B000DEB78D838D81882F90E09C01220F331F23
:1023C000C901880F991F880F991F820F931F865785
:1023D0009D4F9C838B838AE892E09A8389838FE167
:1023E0009EE40E9453090E94AD098B819C810E944A
:1023F0002F090F900F900F900F900F90CF91DF91BA
:102400000895DF93CF9300D000D00F92CDB7DEB701
:102410008D838D81882F90E09C01220F331FC9018D
:10242000880F991F880F991F820F931F86579D4F02
:102430009C838B838AE892E09A8389838FE19EE470
:102440000E9453090E94AD098B819C810E94410921
:102450000F900F900F900F900F90CF91DF910895F4
:10246000DF93CF9300D00F92CDB7DEB789838981F8
:10247000282F30E03B832A838A819B81833091051A
:10248000D9F12A813B81243031057CF48A819B81FA
:102490008130910529F12A813B812230310534F5C3
:1024A0008A819B810097B1F044C02A813B8125300D
:1024B000310571F18A819B81853091051CF12A815A
:1024C0003B812630310551F18A819B81873091050E
:1024D00059F12FC083E060E041E00E94400C29C028
:1024E00083E061E041E00E94400C23C083E062E0B1
:1024F00041E00E94400C1DC083E063E041E00E9487
:10250000400C17C083E064E041E00E94400C11C021
:1025100083E065E041E00E94400C0BC083E066E090
:1025200041E00E94400C05C083E067E041E00E946A
:10253000400C0F900F900F90CF91DF910895DF9393
:10254000CF9300D00F92CDB7DEB789838981282F32
:1025500030E03B832A838A819B8183309105D9F1C6
:102560002A813B81243031057CF48A819B81813032
:10257000910529F12A813B812230310534F58A8188
:102580009B810097B1F044C02A813B812530310501
:1025900071F18A819B81853091051CF12A813B81F3
:1025A0002630310551F18A819B818730910559F19F
:1025B0002FC083E060E041E00E94FB0C29C083E073
:1025C00061E041E00E94FB0C23C083E062E041E057
:1025D0000E94FB0C1DC083E063E041E00E94FB0C05
:1025E00017C083E064E041E00E94FB0C11C083E06F
:1025F00065E041E00E94FB0C0BC083E066E041E037
:102600000E94FB0C05C083E067E041E00E94FB0CE8
:102610000F900F900F90CF91DF910895DF93CF939C
:1026200000D00F92CDB7DEB789838981282F30E0A3
:102630003B832A838A819B8183309105D9F12A814A
:102640003B81243031057CF48A819B818130910566
:1026500029F12A813B812230310534F58A819B8121
:102660000097B1F044C02A813B812530310571F1DA
:102670008A819B81853091051CF12A813B8126301E
:10268000310551F18A819B818730910559F12FC025
:1026900083E060E040E00E94FB0C29C083E061E041
:1026A00040E00E94FB0C23C083E062E040E00E9417
:1026B000FB0C1DC083E063E040E00E94FB0C17C0F0
:1026C00083E064E040E00E94FB0C11C083E065E021
:1026D00040E00E94FB0C0BC083E066E040E00E94FB
:1026E000FB0C05C083E067E040E00E94FB0C0F900C
:1026F0000F900F90CF91DF910895DF93CF930F92BA
:10270000CDB7DEB7898383E069810E942F0E0F90D9
:10271000CF91DF910895DF93CF930F92CDB7DEB7BE
:10272000898383E069810E94700E0F90CF91DF91C1
:102730000895DF93CF9300D0CDB7DEB789836A8346
:1027400089816A810E94B10E0F900F90CF91DF9125
:102750000895DF93CF93CDB7DEB70E942E0FCF91B0
:10276000DF910895DF93CF9300D000D00F92CDB7C3
:10277000DEB78D838D810E945F0F9C838B832B81BD
:102780003C818CEE93E1A901489F9001499F300D57
:10279000589F300D11248CE993E6821B930B2B81FB
:1027A0003C81B9010E94FC1FCB019A8389838981F6
:1027B0009A810F900F900F900F900F90CF91DF9113
:1027C00008950F931F93DF93CF93CDB7DEB7CC540B
:1027D000D0400FB6F894DEBF0FBECDBFFE01E75B61
:1027E000FF4F80E090E0A0EFB1E480839183A2836B
:1027F000B3838E010B5B1F4FFE01E75BFF4F6081D0
:1028000071818281938120E030E04AEF54E40E949C
:102810001F02DC01CB01F80180839183A283B38383
:10282000FE01EB5BFF4F608171818281938120E02B
:1028300030E040E85FE30E942504882344F4FE0171
:10284000ED5BFF4F81E090E09183808364C0FE01E7
:10285000EB5BFF4F608171818281938120E03FEFCC
:102860004FE757E40E94C50318160CF043C0FE0161
:10287000E75BFF4F608171818281938120E030E0CE
:1028800040E251E40E941F02DC01CB018E010D5B8E
:102890001F4FBC01CD010E944900DC01CB01F801B2
:1028A000918380831FC0FE01EF5BFF4F88EC90E0B7
:1028B00091838083FE01EF5BFF4F808191810197BF
:1028C000F1F7FE01EF5BFF4F91838083DE01AD5B8B
:1028D000BF4FFE01ED5BFF4F808191810197119603
:1028E0009C938E93FE01ED5BFF4F80819181009759
:1028F000D1F624C08E010D5B1F4FFE01EB5BFF4F35
:1029000060817181828193810E944900DC01CB0149
:10291000F80191838083FE01ED5BFF4F80819181FF
:10292000FE01FF9691838083FE01FF968081918155
:102930000197F1F7FE01FF969183808380E062E0CA
:1029400041E00E94400C80E061E041E00E94400CC8
:1029500080E060E041E00E94400C81E064E041E002
:102960000E94400C81E065E041E00E94400C81E063
:1029700066E041E00E94400C81E067E041E00E9497
:10298000400C80E060E040E00E94FB0C80E061E0F1
:1029900040E00E94FB0C80E062E041E00E94FB0C02
:1029A00081E064E040E00E94FB0C81E065E041E0F2
:1029B0000E94FB0C81E066E040E00E94FB0C81E09D
:1029C00067E040E00E94FB0C80E062E040E00E9493
:1029D000FB0C88E20E948A1980E090E0ACE1B2E44E
:1029E0008BAF9CAFADAFBEAF6BAD7CAD8DAD9EADD3
:1029F0002BEA3AEA4AE250E40E941F02DC01CB01D2
:102A00008FAB98AFA9AFBAAF6FA978AD89AD9AADCA
:102A100020E030E040E85FE30E94250488231CF4B6
:102A200081E08EAB91C06FA978AD89AD9AAD20E001
:102A300030E04FE753E40E94C50318160CF07BC04A
:102A40006BAD7CAD8DAD9EAD20E030E04AE754E447
:102A50000E941903DC01CB018AAB9BABACABBDABD5
:102A60006AA97BA98CA99DA920E030E04AEF54E433
:102A70000E941F02DC01CB018EA79FA7A8ABB9ABB8
:102A80006EA57FA588A999A920E030E040E85FE322
:102A90000E94250488232CF481E090E09DA78CA758
:102AA0003FC06EA57FA588A999A920E03FEF4FE719
:102AB00057E40E94C50318164CF56AA97BA98CA996
:102AC0009DA920E030E040E251E40E941F02DC01B9
:102AD000CB01BC01CD010E944900DC01CB019DA7C7
:102AE0008CA70FC088EC90E09BA78AA78AA59BA51E
:102AF0000197F1F79BA78AA78CA59DA501979DA794
:102B00008CA78CA59DA5009769F724C06EA57FA50D
:102B100088A999A90E944900DC01CB019DA78CA737
:102B20008CA59DA599A788A788A599A50197F1F7D8
:102B300099A788A70FC06FA978AD89AD9AAD0E94FB
:102B40004900DC01CB018EAB8EA98FA38FA18A95A2
:102B5000F1F78FA38CE00E948A1980E090E0ACE14D
:102B6000B2E48BA39CA3ADA3BEA36BA17CA18DA15A
:102B70009EA12BEA3AEA4AE250E40E941F02DC01DD
:102B8000CB018F8F98A3A9A3BAA36F8D78A189A138
:102B90009AA120E030E040E85FE30E94250488230A
:102BA0001CF481E08E8F91C06F8D78A189A19AA1CC
:102BB00020E030E04FE753E40E94C50318160CF004
:102BC0007BC06BA17CA18DA19EA120E030E04AE7F3
:102BD00054E40E941903DC01CB018A8F9B8FAC8FD8
:102BE000BD8F6A8D7B8D8C8D9D8D20E030E04AEF0E
:102BF00054E40E941F02DC01CB018E8B9F8BA88FB7
:102C0000B98F6E897F89888D998D20E030E040E80A
:102C10005FE30E94250488232CF481E090E09D8BE3
:102C20008C8B3FC06E897F89888D998D20E03FEF26
:102C30004FE757E40E94C50318164CF56A8D7B8D4B
:102C40008C8D9D8D20E030E040E251E40E941F0217
:102C5000DC01CB01BC01CD010E944900DC01CB01AC
:102C60009D8B8C8B0FC088EC90E09B8B8A8B8A8924
:102C70009B890197F1F79B8B8A8B8C899D890197A2
:102C80009D8B8C8B8C899D89009769F724C06E89F8
:102C90007F89888D998D0E944900DC01CB019D8B35
:102CA0008C8B8C899D89998B888B888999890197D0
:102CB000F1F7998B888B0FC06F8D78A189A19AA1AC
:102CC0000E944900DC01CB018E8F8E8D8F878F850E
:102CD0008A95F1F78F8781E00E948A198AE097ED43
:102CE000A3ECBFE38B879C87AD87BE876B857C8514
:102CF0008D859E8520E030E04AEF54E40E941F025B
:102D0000DC01CB018F839887A987BA876F8178858B
:102D100089859A8520E030E040E85FE30E94250441
:102D200088232CF481E090E09E838D833FC06F81E7
:102D3000788589859A8520E03FEF4FE757E40E9428
:102D4000C50318164CF56B857C858D859E8520E026
:102D500030E040E251E40E941F02DC01CB01BC01E3
:102D6000CD010E944900DC01CB019E838D830FC001
:102D700088EC90E09C838B838B819C810197F1F799
:102D80009C838B838D819E8101979E838D838D8112
:102D90009E81009769F714C06F81788589859A852F
:102DA0000E944900DC01CB019E838D838D819E8131
:102DB0009A83898389819A810197F1F79A8389831C
:102DC00086E00E948A19C45BDF4F0FB6F894DEBF1D
:102DD0000FBECDBFCF91DF911F910F910895DF936B
:102DE000CF93CDB7DEB769970FB6F894DEBF0FBEAD
:102DF000CDBF898F80E062E041E00E94FB0C80E063
:102E000060E041E00E94FB0C80E061E040E00E9455
:102E1000FB0C898D82958F70982F917081E064E012
:102E2000492F0E94FB0C898D829586958770982F7B
:102E3000917081E065E0492F0E94FB0C898D82959D
:102E4000869586958370982F917081E066E0492F72
:102E50000E94FB0C898D982F991F9927991F81E05B
:102E600067E0492F0E94FB0C80E062E040E00E9496
:102E7000FB0C80E062E041E00E94FB0C898D982F02
:102E8000917081E064E0492F0E94FB0C898D86954A
:102E9000982F917081E065E0492F0E94FB0C898D8D
:102EA00086958695982F917081E066E0492F0E9463
:102EB000FB0C898D869586958695982F917081E07B
:102EC00067E0492F0E94FB0C80E062E040E00E9436
:102ED000FB0C80E090E0A0E2B1E48D8B9E8BAF8B89
:102EE000B88F6D897E898F89988D2BEA3AEA4AE2FC
:102EF00050E40E941F02DC01CB01898B9A8BAB8BC3
:102F0000BC8B69897A898B899C8920E030E040E814
:102F10005FE30E94250488231CF481E0888B91C024
:102F200069897A898B899C8920E030E04FE753E4F6
:102F30000E94C50318160CF07BC06D897E898F89AD
:102F4000988D20E030E04AE754E40E941903DC0148
:102F5000CB018C879D87AE87BF876C857D858E85ED
:102F60009F8520E030E04AEF54E40E941F02DC011C
:102F7000CB0188879987AA87BB87688579858A85E9
:102F80009B8520E030E040E85FE30E942504882331
:102F90002CF481E090E09F838E833FC06885798523
:102FA0008A859B8520E03FEF4FE757E40E94C503E9
:102FB00018164CF56C857D858E859F8520E030E068
:102FC00040E251E40E941F02DC01CB01BC01CD01B3
:102FD0000E944900DC01CB019F838E830FC088ECE7
:102FE00090E09D838C838C819D810197F1F79D8377
:102FF0008C838E819F8101979F838E838E819F8199
:10300000009769F724C0688579858A859B850E9429
:103010004900DC01CB019F838E838E819F819B833E
:103020008A838A819B810197F1F79B838A830FC0F2
:1030300069897A898B899C890E944900DC01CB01CE
:10304000888B8889898389818A95F1F78983699634
:103050000FB6F894DEBF0FBECDBFCF91DF910895BC
:10306000DF93CF930F92CDB7DEB7898389810E941A
:10307000EF160F90CF91DF910895DF93CF9300D09B
:103080000F92CDB7DEB79B838A8319820EC08981E8
:10309000282F30E08A819B81FC01E20FF31F8081A1
:1030A0000E94301889818F5F89838981282F30E0C1
:1030B0008A819B81FC01E20FF31F8081882339F70D
:1030C0000F900F900F90CF91DF9108950F931F9362
:1030D000DF93CF93CDB7DEB72F970FB6F894DEBF4F
:1030E0000FBECDBF6C877D878E879F87198231C0C9
:1030F0008981082F10E08C859D85AE85BF852AE0EB
:1031000030E040E050E0BC01CD010E941020DC0125
:10311000CB01BC01CD010E94031A282FCE010296DB
:10312000FC01E00FF11F20838C859D85AE85BF8556
:103130002AE030E040E050E0BC01CD010E941020C8
:10314000DA01C9018C879D87AE87BF8789818F5F30
:1031500089838C859D85AE85BF850097A105B105C6
:1031600039F611C08981882F90E09C0121503040B0
:10317000CE010296FC01E20FF31F80810E946E07D0
:103180008981815089838981882361F72F960FB6C1
:10319000F894DEBF0FBECDBFCF91DF911F910F918D
:1031A0000895DF93CF93CDB7DEB72E970FB6F8947F
:1031B000DEBF0FBECDBF81E00E948A198AE097ED85
:1031C000A3ECBFE38B879C87AD87BE876B857C852F
:1031D0008D859E8520E030E04AEF54E40E941F0276
:1031E000DC01CB018F839887A987BA876F817885A7
:1031F00089859A8520E030E040E85FE30E9425045D
:1032000088232CF481E090E09E838D833FC06F8102
:10321000788589859A8520E03FEF4FE757E40E9443
:10322000C50318164CF56B857C858D859E8520E041
:1032300030E040E251E40E941F02DC01CB01BC01FE
:10324000CD010E944900DC01CB019E838D830FC01C
:1032500088EC90E09C838B838B819C810197F1F7B4
:103260009C838B838D819E8101979E838D838D812D
:103270009E81009769F714C06F81788589859A854A
:103280000E944900DC01CB019E838D838D819E814C
:103290009A83898389819A810197F1F79A83898337
:1032A0002E960FB6F894DEBF0FBECDBFCF91DF9143
:1032B0000895DF93CF9300D000D000D0CDB7DEB714
:1032C0008B836C831A8280E489838B81282F30E082
:1032D0003E832D838D819E81009731F02D813E812B
:1032E0002130310541F00DC09A818C81890F8058C1
:1032F0000E948A1906C099818C81890F80580E948A
:103300008A1926960FB6F894DEBF0FBECDBFCF91B7
:10331000DF910895DF93CF930F92CDB7DEB7898306
:1033200080E060E040E00E94FB0C80E061E040E073
:103330000E94FB0C80E062E041E00E94FB0C89816E
:1033400082958F70982F917081E064E0492F0E94E0
:10335000FB0C8981829586958770982F917081E00A
:1033600065E0492F0E94FB0C8981829586958695A0
:103370008370982F917081E066E0492F0E94FB0CCA
:103380008981982F991F9927991F81E067E0492F1C
:103390000E94FB0C80E062E040E00E94FB0C80E0B9
:1033A00062E041E00E94FB0C8981982F917081E0DE
:1033B00064E0492F0E94FB0C89818695982F9170BB
:1033C00081E065E0492F0E94FB0C898186958695F6
:1033D000982F917081E066E0492F0E94FB0C898153
:1033E000869586958695982F917081E067E0492FA4
:1033F0000E94FB0C80E062E040E00E94FB0C0F901A
:10340000CF91DF910895DF93CF93CDB7DEB72997A2
:103410000FB6F894DEBF0FBECDBF6A837B838C836B
:103420009D838A819B81AC81BD818E839F83A88788
:10343000B9878E819F81A885B98584309105A105C2
:10344000B10509F477C08E819F81A885B985853043
:103450009105A105B10548F58E819F81A885B985A3
:1034600081309105A105B10509F45BC08E819F8172
:10347000A885B98581309105A105B10508F44EC034
:103480008E819F81A885B98582309105A105B105FE
:1034900009F44AC08E819F81A885B9858330910542
:1034A000A105B10509F443C056C08E819F81A8854E
:1034B000B98587309105A105B10509F444C08E8115
:1034C0009F81A885B98588309105A105B10598F43B
:1034D0008E819F81A885B98585309105A105B105AB
:1034E00061F18E819F81A885B98586309105A105FE
:1034F000B10531F130C08E819F81A885B9858830B2
:103500009105A105B10511F18E819F81A885B9852D
:1035100089309105A105B105E1F01DC080E38983E3
:103520001AC081E3898317C082E3898314C083E3CF
:10353000898311C084E389830EC085E389830BC02E
:1035400086E3898308C087E3898305C088E389838C
:1035500002C089E38983898129960FB6F894DEBF7A
:103560000FBECDBFCF91DF910895DF93CF93CDB73D
:10357000DEB72E970FB6F894DEBF0FBECDBF6B87B8
:103580007C878D879E878AE0FE013196DF01982F28
:103590001D929A95E9F78B859C85AD85BE85BC010A
:1035A000CD019E012F5F3F4FA90123E00E94121B16
:1035B000CE0101960E943D182E960FB6F894DEBFFC
:1035C0000FBECDBFCF91DF910895DF93CF93CDB7DD
:1035D000DEB782E00E948A19CF91DF910895DF93D0
:1035E000CF9300D00F92CDB7DEB789838981282F82
:1035F00030E03B832A838A819B81009731F02A81C6
:103600003B812130310529F007C088E10E948A19E9
:1036100003C08CE10E948A190F900F900F90CF91F8
:10362000DF9108950F931F93DF93CF93CDB7DEB74C
:1036300064970FB6F894DEBF0FBECDBF6E877F874D
:10364000888B998B5B8B4A8B2C8B6E857F858889C9
:1036500099890E944900DC01CB018A879B87AC874E
:10366000BD876A857B858C859D850E94A9049B0109
:10367000AC016E857F85888999890E94C101DC0132
:10368000CB018E839F83A887B9871D8231C08D812E
:10369000282F30E08A899B898C01020F131F8A85AD
:1036A0009B85AC85BD852AE030E040E050E0BC0160
:1036B000CD010E941020DC01CB01BC01CD010E9494
:1036C000031AF80180838A859B85AC85BD852AE035
:1036D00030E040E050E0BC01CD010E941020DA0152
:1036E000C9018A879B87AC87BD878D818F5F8D835A
:1036F0008A859B85AC85BD850097A105B10539F606
:103700008D81282F30E08A899B89FC01E20FF31F0D
:103710008EE280838D818F5F8D836E817F8188852E
:10372000998520E030E040E251E40E941F02DC0174
:10373000CB018E839F83A887B9876E817F8188851F
:1037400099850E944900DC01CB0189839A83AB8370
:10375000BC834FC08D81282F30E08A899B898C01E2
:10376000020F131F89819A81AB81BC812AE030E06E
:1037700040E050E0BC01CD010E941020DC01CB01F3
:10378000BC01CD010E94031AF801808369817A810E
:103790008B819C810E94A9049B01AC016E817F8179
:1037A000888599850E94C101DC01CB018E839F83AE
:1037B000A887B9876E817F818885998520E030E070
:1037C00040E251E40E941F02DC01CB018E839F8303
:1037D000A887B9876E817F81888599850E94490075
:1037E000DC01CB0189839A83AB83BC838D818F5F9E
:1037F0008D8389819A81AB81BC810097A105B10538
:1038000009F0A8CF64960FB6F894DEBF0FBECDBF07
:10381000CF91DF911F910F910895DF93CF930F9276
:10382000CDB7DEB789830F90CF91DF910895DF93F5
:10383000CF93CDB7DEB78CE00E948A19CF91DF918C
:103840000895DF93CF93CDB7DEB788E00E948A1941
:10385000CF91DF910895DF93CF93CDB7DEB76C970B
:103860000FB6F894DEBF0FBECDBF9B8F8A8F6C8FD3
:103870008C8D882F90E00896880F991F880F991FCC
:10388000880F991F0E948A1980E090E0A4E3B2E4B7
:103890008D8B9E8BAF8BB88F6D897E898F89988D2C
:1038A0002BEA3AEA4AE250E40E941F02DC01CB0113
:1038B000898B9A8BAB8BBC8B69897A898B899C8924
:1038C00020E030E040E85FE30E94250488231CF4F8
:1038D00081E0888B91C069897A898B899C8920E0F5
:1038E00030E04FE753E40E94C50318160CF07BC08C
:1038F0006D897E898F89988D20E030E04AE754E415
:103900000E941903DC01CB018C879D87AE87BF879E
:103910006C857D858E859F8520E030E04AEF54E4FC
:103920000E941F02DC01CB0188879987AA87BB8789
:10393000688579858A859B8520E030E040E85FE3F3
:103940000E94250488232CF481E090E09F838E83DD
:103950003FC0688579858A859B8520E03FEF4FE7EA
:1039600057E40E94C50318164CF56C857D858E853D
:103970009F8520E030E040E251E40E941F02DC011C
:10398000CB01BC01CD010E944900DC01CB019F832A
:103990008E830FC088EC90E09D838C838C819D8109
:1039A0000197F1F79D838C838E819F8101979F837F
:1039B0008E838E819F81009769F724C06885798501
:1039C0008A859B850E944900DC01CB019F838E8301
:1039D0008E819F819B838A838A819B810197F1F7E6
:1039E0009B838A830FC069897A898B899C890E940D
:1039F0004900DC01CB01888B8889898389818A957C
:103A0000F1F78983198E0EC0898D282F30E08A8DB9
:103A10009B8DFC01E20FF31F80810E94EF16898DC0
:103A20008F5F898F898D883078F36C960FB6F89404
:103A3000DEBF0FBECDBFCF91DF910895DF93CF934F
:103A400000D000D00F92CDB7DEB789836A834B8355
:103A50008981282F30E03D832C838C819D818130AA
:103A60009105B1F02C813D8122303105F1F08C813E
:103A70009D81009731F582E991E060E00E942B1C66
:103A80008A816B810E94591980E00E94EF1619C04B
:103A90008AE991E061E00E942B1C8A816B810E947F
:103AA000591981E00E94EF160CC082EA91E062E0B1
:103AB0000E942B1C8A816B810E94591982E00E940E
:103AC000EF160F900F900F900F900F90CF91DF9106
:103AD0000895DF93CF9300D00F92CDB7DEB78983DF
:103AE0008981282F30E03B832A838A819B81833020
:103AF0009105D9F12A813B81243031057CF48A81FA
:103B00009B818130910529F12A813B812230310549
:103B100034F58A819B810097B1F044C02A813B81B2
:103B20002530310571F18A819B81853091051CF129
:103B30002A813B812630310551F18A819B81873072
:103B4000910559F12FC080E060E040E00E94400CF8
:103B500029C080E061E040E00E94400C23C080E08A
:103B600062E040E00E94400C1DC080E063E040E065
:103B70000E94400C17C080E064E040E00E94400CCE
:103B800011C080E065E040E00E94400C0BC080E086
:103B900066E040E00E94400C05C080E067E040E045
:103BA0000E94400C0F900F900F90CF91DF910895DD
:103BB000DF93CF9300D000D00F92CDB7DEB78B83C9
:103BC0008B81282F30E03D832C838C819D81833035
:103BD0009105D9F12C813D81243031057CF48C8113
:103BE0009D818130910529F12C813D812230310563
:103BF00034F58C819D810097B1F044C02C813D81CA
:103C00002530310571F18C819D81853091051CF144
:103C10002C813D812630310551F18C819D81873089
:103C2000910559F12FC080E060E00E94B60D8A83B3
:103C300029C080E061E00E94B60D8A8323C080E045
:103C400062E00E94B60D8A831DC080E063E00E949E
:103C5000B60D8A8317C080E064E00E94B60D8A83A7
:103C600011C080E065E00E94B60D8A830BC080E041
:103C700066E00E94B60D8A8305C080E067E00E947E
:103C8000B60D8A838A81882319F481E0898301C073
:103C9000198289810F900F900F900F900F90CF9104
:103CA000DF910895DF93CF93CDB7DEB76E970FB650
:103CB000F894DEBF0FBECDBF0E9417070E942511EA
:103CC00081E00E94031080E00E9403100E94A9136B
:103CD00082E00E94301283E00E94301284E00E9451
:103CE000301286E00E9430128091C001982F80E04F
:103CF000692F0E9490108091C1010E94021186E0FC
:103D00000E94B213893C910508F4ADC08091C001B6
:103D1000893029F48091C101893009F457C180E6C6
:103D200090E00E9497070E9488078E8F8E8D8937BA
:103D300021F08E8D893509F049C182E00E949F12E1
:103D400086E00E949F1280E00E94D21180E090E005
:103D5000AAE7B5E4898F9A8FAB8FBC8F698D7A8D76
:103D60008B8D9C8D20E030E04AEF54E40E941F02CE
:103D7000DC01CB018D8B9E8BAF8BB88F6D897E89DB
:103D80008F89988D20E030E040E85FE30E942504B1
:103D900088232CF481E090E09C8B8B8B3FC06D8955
:103DA0007E898F89988D20E03FEF4FE757E40E948E
:103DB000C50318164CF5698D7A8D8B8D9C8D20E08E
:103DC00030E040E251E40E941F02DC01CB01BC0163
:103DD000CD010E944900DC01CB019C8B8B8B0FC075
:103DE00088EC90E09A8B898B89899A890197F1F701
:103DF0009A8B898B8B899C8901979C8B8B8B8B8968
:103E00009C89009769F714C06D897E898F89988D88
:103E10000E944900DC01CB019C8B8B8B8B899C8998
:103E2000988B8F878F8598890197F1F7988B8F876B
:103E300084EB0E94D21182E00E940E1386E00E9461
:103E40000E138091C0018F5F8093C0018091C001EB
:103E50008A3009F0BBC01092C0018091C1018F5F10
:103E60008093C101B3C087E00E94B213893C9105E1
:103E700008F4ACC08091C00118162CF08091C101EB
:103E800018160CF0A3C082E690E00E9497070E94EB
:103E900088078D8F8D8D893721F08D8D893509F0BB
:103EA00095C083E00E949F1284E00E949F1280E0F0
:103EB0000E94D21180E090E0AAEFB4E48B879C8747
:103EC000AD87BE876B857C858D859E8520E030E043
:103ED0004AEF54E40E941F02DC01CB018F839887D4
:103EE000A987BA876F81788589859A8520E030E037
:103EF00040E85FE30E94250488232CF481E090E0F1
:103F00009E838D833FC06F81788589859A8520E067
:103F10003FEF4FE757E40E94C50318164CF56B8539
:103F20007C858D859E8520E030E040E251E40E9452
:103F30001F02DC01CB01BC01CD010E944900DC0164
:103F4000CB019E838D830FC088EC90E09C838B8394
:103F50008B819C810197F1F79C838B838D819E815E
:103F600001979E838D838D819E81009769F714C090
:103F70006F81788589859A850E944900DC01CB0193
:103F80009E838D838D819E819A83898389819A8185
:103F90000197F1F79A83898383E00E940E1384E0EE
:103FA0000E940E1384EB0E94D2118091C0018150B7
:103FB0008093C0018091C001882344F489E08093FC
:103FC000C0018091C10181508093C10187E00E94AE
:103FD000B213CC01A0E0B0E0BC01CD010E94661894
:103FE0008091C001982F80E0692F0E9490108091ED
:103FF000C1010E94021183CEAA1BBB1B51E107C065
:10400000AA1FBB1FA617B70710F0A61BB70B881F68
:10401000991F5A95A9F780959095BC01CD010895F7
:10402000A1E21A2EAA1BBB1BFD010DC0AA1FBB1FBC
:10403000EE1FFF1FA217B307E407F50720F0A21B2E
:10404000B30BE40BF50B661F771F881F991F1A949B
:1040500069F760957095809590959B01AC01BD01C5
:10406000CF0108952F923F924F925F926F927F926D
:104070008F929F92AF92BF92CF92DF92EF92FF9278
:104080000F931F93CF93DF93CDB7DEB7CA1BDB0B24
:104090000FB6F894DEBF0FBECDBF09942A883988C9
:1040A00048885F846E847D848C849B84AA84B984D0
:1040B000C884DF80EE80FD800C811B81AA81B981DC
:1040C000CE0FD11D0FB6F894DEBF0FBECDBFED01F0
:0640D0000895F894FFCFF3
:1040D60049004F000000000000000000000102023D
:1040E600030303030404040404040404050505058A
:1040F6000505050505050505050505050606060666
:104106000606060606060606060606060606060649
:104116000606060606060606060606060707070735
:104126000707070707070707070707070707070719
:104136000707070707070707070707070707070709
:1041460007070707070707070707070707070707F9
:1041560007070707070707070707070708080808E5
:1041660008080808080808080808080808080808C9
:1041760008080808080808080808080808080808B9
:1041860008080808080808080808080808080808A9
:104196000808080808080808080808080808080899
:1041A6000808080808080808080808080808080889
:1041B6000808080808080808080808080808080879
:1041C6000808080808080808080808080808080869
:1041D6000808080808080808080808083F065B4F8A
:1041E600666D7D077F6F010204080810200101013A
:1041F60000000000000100003F061B0F262D3D07B2
:104206003F2F040E0E0E1F00040000000A15110AAF
:0A42160004000E0E04041F040A0A3F
:00000001FF
